:100000000C94AF000C94D7000C94D7000C94D7003C
:100010000C94D7000C94D7000C94D7000C94322386
:100020000C94D7000C94D7000C94D7000C94D700F4
:100030000C94D7000C94D7000C94D7000C94D700E4
:100040000C949A190C94D7000C94991C0C94CB1C0A
:100050000C94D7000C94D7000C94D7000C94D700C4
:100060000C944C150C94D700E817301830188217F0
:100070003018A717D517D217301830183018CB17EB
:10008000B117891730183018301830189B173018EE
:100090001518301830183018C317301830183018A9
:1000A0003018301830183018F1173018301877170A
:1000B00030183018DD17D817FE177A1730187D174B
:1000C000A117A41730183018301830180018BD17B1
:1000D000301830188E173018C617931711121314D2
:1000E00015160A0B0C0D0E0F0001020304051F1C50
:1000F0001F1E1F1E1F1F1E1F1E1F000000080002C4
:1001000001000003040700000000000000000102DD
:100110000408102040800102040810200102040895
:100120001020040404040404040402020202020273
:10013000030303030303000000002300260029003B
:1001400000000000250028002B0000000000240013
:1001500027002A000200B1026214FB1CBD02112418
:100160001FBECFEFD8E0DEBFCDBF13E0A0E0B1E00F
:10017000EEEFF7E502C005900D92A83CB107D9F764
:1001800026E0A8ECB3E001C01D92AD3DB207E1F757
:1001900011E0CCE5D1E004C02297FE010E94D126F7
:1001A000C635D107C9F70E942B240C94F22B0C946E
:1001B0000000CF92DF92EF92FF920F931F93CF93A5
:1001C000DF9300D000D0CDB7DEB749835A836B836D
:1001D0007C838E010F5F1F4F7C016E0185E0C80E8E
:1001E000D11CF80161918F01C7010E94072BFFEF1D
:1001F000EF1AFF0A0C151D05A1F70F900F900F9035
:100200000F90DF91CF911F910F91FF90EF90DF90B2
:10021000CF900895CF92DF92EF92FF920F931F93AA
:10022000CF93DF9300D000D0CDB7DEB78E010F5F44
:100230001F4F7E0125E0E20EF11C6C01C01AD10AAD
:10024000C601800F911F0E94FF2AF80181938F0140
:10025000EE15FF05A9F769817A818B819C810F904A
:100260000F900F900F90DF91CF911F910F91FF9002
:10027000EF90DF90CF9008958F929F92AF92BF92B0
:10028000CF92DF92EF92FF920F931F9361E086E08F
:100290000E94BC1A61E085E00E94BC1A61E086E021
:1002A0000E94F51A61E085E00E94F51A61E084E0A1
:1002B0000E94BC1A61E089E00E94BC1A26E040E876
:1002C00055E260E070E087E296E00E94371C64EF40
:1002D00071E080E090E00E94131A82E594E00E94B1
:1002E000761984E394E00E94CA1281EEE82E97EE1C
:1002F000F92E07EE17EE27EE30E040E050E061E027
:1003000084E394E00E94B51184E394E00E944212D9
:1003100080E090E00E940A016B017C01609326045A
:1003200070932704809328049093290485E090E03B
:100330000E940A010E940C257093E3036093E2037C
:1003400089E090E00E940A014B015C016093220465
:100350007093230480932404909325048EE090E00E
:100360000E940A010E940C257093DB036093DA035C
:1003700083E190E00E940A010E940C257093DD0346
:100380006093DC0388E190E00E940A010E940C2542
:100390007093DF036093DE038DE190E00E940A0119
:1003A0000E940C257093E1036093E00383E290E0E8
:1003B0000E940A016093D2037093D3038093D40305
:1003C0009093D50389E290E00E940A016093D603DE
:1003D0007093D7038093D8039093D9031092D103DD
:1003E0001092D00380E090E0A8E4B2E480931E0471
:1003F00090931F04A0932004B093210410921A0438
:1004000010921B0410921C0410921D0410921604EA
:10041000109217041092180410921904A501940167
:10042000C701B6010E943C2460930E0470930F0430
:100430008093100490931104A5019401C701B601A3
:100440000E943B2460930A0470930B0480930C0475
:1004500090930D04C0920604D0920704E092080421
:10046000F0920904C0920204D0920304E0920404C2
:10047000F092050481E090E09093F5038093F403FB
:100480001092F3031092F2031092F1031092F00312
:100490001092EF031092EE031092E4031092E50322
:1004A0001092E6031092E703109233041092320484
:1004B00010922E0410922F041092300410923104E6
:1004C00010922A0410922B0410922C0410922D04E6
:1004D0001F910F91FF90EF90DF90CF90BF90AF9062
:1004E0009F908F900895CF93DF9300D0CDB7DEB764
:1004F0002091D9063091DA062115310511F42DED40
:1005000036E0CE010196821B930B0F900F90DF9186
:10051000CF9108958EE480937C0062E070E080E0EB
:1005200090E00E94131A80917A00806480937A0090
:1005300080917A0086FDFCCF80917800209179002F
:1005400030E0322F2227442737FD4095542F282BA7
:1005500060E070E381E190E00E94B026CA01B90139
:10056000089547E068E084E394E00E945C1169EB41
:1005700073E088EE93E00C94FC2388EE93E00C94F7
:100580008E234F925F926F927F928F929F92AF9243
:10059000BF92CF92DF92EF92FF920F931F93CF9370
:1005A000DF93CDB7DEB76E970FB6F894DEBF0FBE00
:1005B000CDBF62E574E0CE0107960E94A3188CE0DF
:1005C000FE013796A6E4B4E001900D928A95E1F71A
:1005D0000E94E419C090E403D090E503E090E603A4
:1005E000F090E7036C197D098E099F09693E7340FD
:1005F0008105910510F40C94FF0F0E94E41960939B
:10060000E4037093E5038093E6039093E7038091FE
:10061000EE039091EF0301969093EF038093EE0326
:1006200087E296E00E94541B892B09F49FC141E0A8
:1006300060E070E087E296E00E94E21F4B015C01FF
:1006400041E060E070E087E296E00E9452206B019A
:100650007C0141E060E070E087E296E00E94E21FEA
:100660006B8B7C8B8D8B9E8B41E060E070E087E232
:1006700096E00E9452202B013C0169EB73E0CE0111
:1006800001960E94FC2333E08316910409F45DC0B7
:10069000F4F491E08916910499F1A2E08A1691048C
:1006A00009F036C1B701A60180E090E00E94D900B0
:1006B0006DE071E087E296E00E948A1D4091260479
:1006C0005091270460912804709129045AC0B5E024
:1006D0008B16910409F4BCC00CF45AC036E08316A2
:1006E000910409F015C163E471E087E296E00E948D
:1006F000A91D81E090E09093D1038093D00332C193
:10070000C701B6010E940C257093E3036093E203D6
:10071000882777FD8095982F0E943F25AB01BC016B
:1007200085E090E00E94D90067E071E087E296E002
:100730000E948A1D6091E2037091E3034AE050E059
:1007400087E296E00E945C1E0DC1C0922204D09206
:100750002304E0922404F0922504B701A60189E065
:1007600090E00E94D90064E171E087E296E00E9487
:100770008A1D4091220450912304609124047091B9
:10078000250422E030E087E296E00E945F1FEAC085
:10079000C701B6010E940C257093DB036093DA0356
:1007A0008B899C899093DD038093DC034092D20374
:1007B0005092D3036092D4037092D503B301A20187
:1007C00083E290E00E94D900B701A6018EE090E09C
:1007D0000E94D900AB89BC89BD01882777FD80952F
:1007E000982F0E943F25AB01BC0183E190E00E945D
:1007F000D90061E271E087E296E00E948A1D609173
:10080000DA037091DB034AE050E087E296E00E9451
:10081000541E6EE271E087E296E00E948A1D6091AC
:10082000DC037091DD034AE050E087E296E00E942D
:10083000541E62E371E087E296E00E948A1D4091B7
:10084000D2035091D3036091D4037091D50399CF13
:10085000C701B6010E940C257093DF036093DE038D
:100860002B893C893093E1032093E0034092D60327
:100870005092D7036092D8037092D903B301A201BA
:1008800089E290E00E94D900B701A60188E190E0DA
:100890000E94D900AB89BC89BD01882777FD80956E
:1008A000982F0E943F25AB01BC018DE190E00E9492
:1008B000D90066E371E087E296E00E948A1D6091AC
:1008C000DE037091DF034AE050E087E296E00E9489
:1008D000541E6EE271E087E296E00E948A1D6091EC
:1008E000E0037091E1034AE050E087E296E00E9465
:1008F000541E62E371E087E296E00E948A1D4091F7
:10090000D6035091D7036091D8037091D90339CFA2
:1009100065E471E087E296E00E94A91D6BE471E056
:1009200087E296E00E94A91D64E571E087E296E007
:100930000E94A91D6BE571E087E296E00E94A91D67
:1009400068E671E087E296E00E94A91D61E971E026
:1009500087E296E00E94A91D6EE971E087E296E0C9
:100960000E94A91DCE0101960E948E2385E00E945F
:100970002B1B892B11F461E001C060E085E00E942F
:10098000F51A60E086E00E94F51A84E394E00E9484
:10099000A511882309F4CFC34CE066EF73E084E32C
:1009A00094E00E94A91164E170E080E090E00E9470
:1009B000131A1092EF031092EE031092F1031092AB
:1009C000F00389E00E941D2361E086E00E94F51A91
:1009D000E090F203F090F303B4E0EB16F10409F0B9
:1009E00089C320E030E040E85EE360912E0470911E
:1009F0002F0480913004909131040E94F3256B0103
:100A00007C0160932A0470932B0480932C049093B0
:100A10002D0410922E0410922F0410923004109284
:100A200031041092F3031092F2039B01AC01609128
:100A30001E0470911F0480912004909121040E9453
:100A4000EF25181644F4C0921E04D0921F04E092C1
:100A50002004F0922104A701960160911A0470917C
:100A60001B0480911C0490911D040E94A02487FF08
:100A700008C0C0921A04D0921B04E0921C04F092A9
:100A80001D048091F4039091F5038130910509F4E0
:100A900018C11CF4892B49F04EC38230910509F42A
:100AA000A0C1039709F495C246C3809012049090A8
:100AB0001304A0901404B0901504A7019601C50179
:100AC000B4010E94A02418162CF0809133048823CE
:100AD00009F49BC1A7019601C501B4010E94EF254D
:100AE00018160CF028C380913304811124C380921E
:100AF0000E0490920F04A0921004B0921104C090C2
:100B00002604D0902704E0902804F09029048091D6
:100B1000220490912304A0912404B09125048B8B8E
:100B20009C8BAD8BBE8B9C01AD01C701B6010E94B1
:100B30003C242B013C019B01AC01C501B4010E9486
:100B4000EF2518160CF05DC0A3019201C501B40198
:100B50000E943B2420E030E040E05FE30E94F32568
:100B60009B01AC0160910204709103048091040424
:100B7000909105040E943B242B013C012B893C8968
:100B80004D895E89CA01B9010E943C246F8B788F20
:100B9000898F9A8F9B01AC01C701B6010E943B244B
:100BA0006B8F7C8F8D8F9E8F9B01AC01C301B20137
:100BB0000E94EF2587FD19C02F89388D498D5A8DE8
:100BC000C701B6010E943C249B01AC01C301B201E4
:100BD0000E94A02418164CF0409202045092030484
:100BE00060920404709205040CC08B8D9C8DAD8DB9
:100BF000BE8D8093020490930304A0930404B093E9
:100C00000504A7019601C501B4010E94A02487FF35
:100C100055C0A5019401C701B6010E943B2420E004
:100C200030E040E05FE30E94F32520910204309120
:100C3000030440910404509105040E943C242B01BC
:100C40003C012B893C894D895E89CA01B9010E940A
:100C50003C244B015C019B01AC01C701B6010E9421
:100C60003B249B01AC01C301B2010E94EF2587FD2B
:100C700017C0A5019401C701B6010E943C249B0145
:100C8000AC01C301B2010E94A02418164CF040929E
:100C900002045092030460920404709205040EC092
:100CA000A5019401C701B6010E943C24609302048F
:100CB00070930304809304049093050481E090E012
:100CC00083C120910604309107044091080450919B
:100CD0000904C701B6010E94A0241816DCF4209173
:100CE0002204309123044091240450912504609102
:100CF00026047091270480912804909129040E9471
:100D00003B249B01AC01C701B6010E94A024181628
:100D10000CF411C28091330481110DC22091220480
:100D200030912304409124045091250460912604BD
:100D30007091270480912804909129040E943B24FB
:100D40004B015C019B01AC01C701B6010E94A024CC
:100D5000181644F08092060490920704A0920804AA
:100D6000B092090481E080933304A0904604B090CF
:100D70004704C0904804D0904904E0904A04F090A1
:100D80004B0400914C0410914D0420914E0430917D
:100D90004F04409150045091510460EA71E082E5A3
:100DA00094E00E940017BC0188EE93E00E94122498
:100DB00020E030E040E05FE360911604709117049A
:100DC00080911804909119040E943C2460931604A9
:100DD00070931704809318049093190482E090E0B4
:100DE000F3C08090120490901304A0901404B0906B
:100DF0001504A7019601C501B4010E94EF2587FDE6
:100E00000DC080913304882349F0C0921204D0921F
:100E10001304E0921404F09215048DC1A701960109
:100E2000C501B4010E94A02487FF85C180913304CD
:100E3000882309F480C180920A0490920B04A09246
:100E40000C04B0920D04C0902604D0902704E090CA
:100E50002804F09029048091220490912304A09109
:100E60002404B09125048B8B9C8BAD8BBE8B9C0195
:100E7000AD01C701B6010E943B242B013C019B013F
:100E8000AC01C501B4010E94A02487FF4AC0A5019E
:100E90009401C301B2010E943B2420E030E040E015
:100EA0005FE30E94F32520910604309107044091EE
:100EB0000804509109040E943C242B013C012B8919
:100EC0003C894D895E89CA01B9010E943C246F8B1F
:100ED000788F898F9A8F9B01AC01C701B6010E9460
:100EE0003B249B01AC01C301B2010E94EF2587FDA9
:100EF00018C02F89388D498D5A8DC701B6010E94BF
:100F00003C249B01AC01C301B2010E94A02418162D
:100F100044F04092060450920704609208047092D4
:100F20000904A7019601C501B4010E94EF25181616
:100F30000CF048C0A7019601C501B4010E943B24F2
:100F400020E030E040E05FE30E94F3259B01AC012C
:100F5000609106047091070480910804909109043F
:100F60000E943B244B015C012B893C894D895E89A1
:100F7000CA01B9010E943C242B013C019B01AC0138
:100F8000C701B6010E943B249B01AC01C501B4011D
:100F90000E94EF2587FD16C0A3019201C701B6018B
:100FA0000E943C249B01AC01C501B4010E94A02415
:100FB000181644F08092060490920704A092080448
:100FC000B092090483E090E09093F5038093F403DA
:100FD000B2C0209102043091030440910404509166
:100FE0000504C701B6010E94EF2587FF1AC02091B2
:100FF00022043091230440912404509125046091EF
:1010000026047091270480912804909129040E945D
:101010003C249B01AC01C701B6010E94EF2587FD6E
:101020008AC080913304882309F485C0209122046A
:1010300030912304409124045091250460912604AA
:101040007091270480912804909129040E943C24E7
:101050004B015C019B01AC01C701B6010E94EF2569
:1010600087FD08C08092020490920304A0920404B9
:10107000B092050410923304A0904604B090470447
:10108000C0904804D0904904E0904A04F0904B048A
:1010900000914C0410914D0420914E0430914F0466
:1010A000409150045091510460EA71E082E594E06F
:1010B0000E940017BC0188EE93E00E94122420E0F9
:1010C00030E040E05FE36091160470911704809176
:1010D0001804909119040E943C24609316047093A4
:1010E000170480931804909319041092F50310923A
:1010F000F40321C02091F6033091F7034091F803E7
:101100005091F90360912E0470912F048091300466
:10111000909131040E943C2460932E0470932F041C
:1011200080933004909331049FEFE91AF90AF0920A
:10113000F303E092F2038091EE039091EF0349975D
:101140006CF01092EF031092EE038091F0039091F7
:10115000F10301969093F1038093F0038091F003E3
:101160009091F1030597ACF081E08093330480E027
:1011700090E0A0ECBFE78093F6039093F703A09371
:10118000F803B093F90383E090E09093F503809324
:10119000F403C090FE03D090FF03E0900004F090B1
:1011A000010426E636E646E650E4C701B6010E9491
:1011B000A02487FF27C120E030E040E85FE3C701BB
:1011C000B6010E94EF2518160CF01CC18091320464
:1011D00091E0892780933204882309F413C120E029
:1011E00030E0A90168EE73E089E00E94EE2065E03E
:1011F00070E080E090E00E94131A20E030E0A90146
:101200006EE774E089E00E94EE2065E070E080E027
:1012100090E00E94131A20E030E0A90164E175E03B
:1012200089E00E94EE2065E070E080E090E00E949E
:10123000131A20E030E0A9016AEA75E089E00E9413
:10124000EE2065E070E080E090E00E94131A20E05C
:1012500030E0A90160E476E089E00E94EE2065E0DC
:1012600070E080E090E00E94131A20E030E0A901D5
:1012700066ED76E089E00E94EE2065E070E080E0B7
:1012800090E00E94131A20E030E0A9016CE677E0BC
:1012900089E00E94EE2065E070E080E090E00E942E
:1012A000131A20E030E0A90162E078E089E00E94B2
:1012B000EE2065E070E080E090E00E94131A20E0EC
:1012C00030E0A90168E978E089E00E94EE2065E05D
:1012D00070E080E090E00E94131A20E030E0A90165
:1012E0006EE279E089E00E94EE2065E070E080E047
:1012F00090E00E94131A20E030E0A90164EC79E04C
:1013000089E00E94EE2065E070E080E090E00E94BD
:10131000131A20E030E0A9016AE57AE089E00E9432
:10132000EE2065E070E080E090E00E94131A20E07B
:1013300030E0A90160EF7AE089E00E94EE2065E0EC
:1013400070E080E090E00E94131A20E030E0A901F4
:1013500066E87BE089E00E94EE2065E070E080E0D6
:1013600090E00E94131A20E030E0A9016CE17CE0DB
:1013700089E00E94EE2065E070E080E090E00E944D
:10138000131A20E030E0A90162EB7CE089E00E94C2
:10139000EE2065E070E080E090E00E94131A20E00B
:1013A00030E0A90168E47DE089E00E94EE2065E07C
:1013B00070E080E090E00E94131A20E030E0A90184
:1013C0006EED7DE089E00E94EE2065E070E080E057
:1013D00090E00E94131A20E030E0A90164E77EE06B
:1013E00089E00E94EE2065E070E080E090E00E94DD
:1013F000131A20E030E0A9016AE07FE089E00E9452
:10140000EE2003C089E00E941D234091DA03509131
:10141000DB036091DC037091DD0320914A046417C3
:101420007507ACF488E190E09093CF038093CE03EE
:10143000FB01E20FF11D77972CF49093CD0380937D
:10144000CC0309C01092CD031092CC0304C01092BB
:10145000CF031092CE0330E08091CC039091CD0366
:10146000820F931F84179507B4F04091CE035091DB
:10147000CF03460F571F841795076CF480E090E068
:101480000E940A018090D2039090D303A090D403CD
:10149000B090D50344C06091DE037091DF034091AA
:1014A000E0035091E10346175707ACF488E190E060
:1014B0009093CF038093CE03F901E40FF51F779744
:1014C0002CF49093CD038093CC0309C01092CD03EC
:1014D0001092CC0304C01092CF031092CE038091DF
:1014E000CC039091CD03820F931F861797070CF4BE
:1014F00066C02091CE033091CF03240F351F821791
:1015000093070CF05CC080E090E00E940A0180909C
:10151000D6039090D703A090D803B090D903A5012B
:1015200094010E943C246B017C016093C80370937A
:10153000C9038093CA039093CB0320E030E0A90154
:10154000C501B4010E94EF252091220430912304AB
:10155000409124045091250418166CF4C701B6017B
:101560000E943B246093020470930304809304045C
:10157000909305040CC0C701B6010E943C246093FF
:101580000604709307048093080490930904A7014C
:10159000960160912604709127048091280490910F
:1015A00029040E94A024882309F454C0C092260470
:1015B000D0922704E0922804F09229044BC0809036
:1015C000260490902704A0902804B090290480E07D
:1015D00090E00E940A016B017C019B01AC01C501F6
:1015E000B4010E94A0248823A9F1A7019601C50196
:1015F000B4010E94A0242091220430912304409140
:1016000024045091250487FF0DC0C701B6010E9434
:101610003B2460930204709303048093040490932A
:1016200005040CC0C701B6010E943C246093060467
:1016300070930704809308049093090480E090E07D
:101640000E940A0160932604709327048093280463
:10165000909329048091D0039091D1031816190614
:101660000CF047C22EE531E040E050E068E871E060
:1016700089E00E94EE206EE571E080E090E00E943B
:10168000131A2EE531E040E050E068E871E089E0AF
:101690000E94EE206EE571E080E090E00E94131A57
:1016A0002EE531E040E050E068E871E089E00E941A
:1016B000EE206EE571E080E090E00E94131A2AEFC0
:1016C00030E040E050E067E371E089E00E94EE2006
:1016D0006AEF70E080E090E00E94131A24E630E0A8
:1016E00040E050E062ED71E089E00E94EE2064E6A7
:1016F00070E080E090E00E94131A2EE531E040E0B7
:1017000050E068E871E089E00E94EE206EE571E04B
:1017100080E090E00E94131A2AEF30E040E050E0B1
:1017200067E371E089E00E94EE206AEF70E080E0FC
:1017300090E00E94131A24E630E040E050E062EDB1
:1017400071E089E00E94EE2064E670E080E090E0C5
:101750000E94131A2CEB32E040E050E068E871E0A0
:1017600089E00E94EE206CEB72E080E090E00E9445
:10177000131A2EE531E040E050E06BE472E089E0BE
:101780000E94EE206EE571E080E090E00E94131A66
:101790002EE531E040E050E06BE472E089E00E9429
:1017A000EE206EE571E080E090E00E94131A2EE5D5
:1017B00031E040E050E06BE472E089E00E94EE200E
:1017C0006EE571E080E090E00E94131A2AEF30E0AD
:1017D00040E050E06EE672E089E00E94EE206AEFA1
:1017E00070E080E090E00E94131A24E630E040E0D0
:1017F00050E062ED71E089E00E94EE2064E670E066
:1018000080E090E00E94131A2EE531E040E050E0C5
:1018100061E771E089E00E94EE206EE571E080E012
:1018200090E00E94131A2AEF30E040E050E067E3B6
:1018300071E089E00E94EE206AEF70E080E090E0C5
:101840000E94131A24E630E040E050E062ED71E0BF
:1018500089E00E94EE2064E670E080E090E00E9463
:10186000131A2CEB32E040E050E068E871E089E0C8
:101870000E94EE206CEB72E080E090E00E94131A70
:101880002EE531E040E050E060E173E089E00E9445
:10189000EE206EE571E080E090E00E94131A2AEFDE
:1018A00030E040E050E068E871E089E00E94EE201E
:1018B0006AEF70E080E090E00E94131A24E630E0C6
:1018C00040E050E068E871E089E00E94EE2064E6C4
:1018D00070E080E090E00E94131A2EE531E040E0D5
:1018E00050E060E173E089E00E94EE206EE571E077
:1018F00080E090E00E94131A2AEF30E040E050E0D0
:1019000063EE72E089E00E94EE206AEF70E080E012
:1019100090E00E94131A24E630E040E050E06AEBC9
:1019200072E089E00E94EE2064E670E080E090E0E2
:101930000E94131A24E630E040E050E063E972E0D0
:1019400089E00E94EE2064E670E080E090E00E9472
:10195000131A24E630E040E050E06EE672E089E0E1
:101960000E94EE2064E670E080E090E00E94131A8E
:1019700022EC31E040E050E063E972E089E00E944F
:10198000EE2062EC71E080E090E00E94131A26E9FC
:1019900030E040E050E06FE971E089E00E94EE2025
:1019A00066E970E080E090E00E94131A2EE531E0D5
:1019B00040E050E06AE272E089E00E94EE206EE5CD
:1019C00071E080E090E00E94131A2AEF30E040E0DE
:1019D00050E06BE072E089E00E94EE206AEF70E078
:1019E00080E090E00E94131A24E630E040E050E0EE
:1019F0006DEE71E089E00E94EE2064E670E080E028
:101A000090E00E94131A24E630E040E050E062EDDE
:101A100071E089E00E94EE2064E670E080E090E0F2
:101A20000E94131A24E630E040E050E068EB71E0D9
:101A300089E00E94EE2064E670E080E090E00E9481
:101A4000131A22EC31E040E050E062ED71E089E0F1
:101A50000E94EE2062EC71E080E090E00E94131A98
:101A600026E930E040E050E067E371E089E00E9461
:101A7000EE2066E970E080E090E00E94131A2EE507
:101A800031E040E050E061E771E089E00E94EE2043
:101A90006EE571E080E090E00E94131A2AEF30E0DA
:101AA00040E050E067E371E089E00E94EE206AEFD9
:101AB00070E080E090E00E94131A24E630E040E0FD
:101AC00050E062ED71E089E00E94EE2064E670E093
:101AD00080E090E00E94131A2EEE32E040E050E0E9
:101AE00068E871E089E00E94EE201092D103109224
:101AF000D0038091E2039091E303039709F075C24C
:101B000066EA71E087E296E00E94A91D69EB73E046
:101B100087E296E00E94A91D6CEA71E087E296E0F8
:101B20000E948A1D0E9473024AE050E0BC0187E2D5
:101B300096E00E945C1E62EB71E087E296E00E94F4
:101B40008A1D80E090E00E940A01AB01BC0122E006
:101B500030E087E296E00E945F1F6BEB71E087E266
:101B600096E00E948A1D40912604509127046091BE
:101B700028047091290422E030E087E296E00E9478
:101B80005F1F66EC71E087E296E00E948A1D40913B
:101B90002A0450912B0460912C0470912D0422E0B2
:101BA00030E087E296E00E945F1F60ED71E087E21F
:101BB00096E00E948A1D4091F6035091F7036091D0
:101BC000F8037091F90322E030E087E296E00E948A
:101BD0005F1F67ED71E087E296E00E948A1D4091E9
:101BE000220450912304609124047091250422E082
:101BF00030E087E296E00E945F1F62EE71E087E2CC
:101C000096E00E948A1D40911A0450911B04609135
:101C10001C0470911D0422E030E087E296E00E94EF
:101C20005F1F6BEE71E087E296E00E948A1D409193
:101C30001E0450911F04609120047091210422E041
:101C400030E087E296E00E945F1F63EF71E087E279
:101C500096E00E948A1D40910E0450910F046091FD
:101C600010047091110422E030E087E296E00E94B7
:101C70005F1F6EEF71E087E296E00E948A1D40913F
:101C80000A0450910B0460910C0470910D0422E041
:101C900030E087E296E00E945F1F69E072E087E231
:101CA00096E00E948A1D40910604509107046091BD
:101CB00008047091090422E030E087E296E00E9477
:101CC0005F1F61E172E087E296E00E948A1D409109
:101CD000020450910304609104047091050422E011
:101CE00030E087E296E00E945F1F6AE172E087E2DF
:101CF00096E00E948A1D4091120450911304609155
:101D000014047091150422E030E087E296E00E940E
:101D10005F1F63E272E087E296E00E948A1D609195
:101D2000F2037091F3034AE050E087E296E00E94EC
:101D30005C1E6AE272E087E296E00E948A1D609172
:101D4000EE037091EF034AE050E087E296E00E94D4
:101D50005C1E62E372E087E296E00E948A1D609159
:101D6000F0037091F1034AE050E087E296E00E94B0
:101D70005C1E69E372E087E296E00E948A1D409152
:101D8000160450911704609118047091190422E010
:101D900030E087E296E00E945F1F61E472E087E234
:101DA00096E00E948A1D6091330470E04AE050E0A2
:101DB00087E296E00E945C1E68E472E087E296E0AB
:101DC0000E948A1D6091F4037091F5034AE050E08F
:101DD00087E296E00E945C1E6FE472E087E296E084
:101DE0000E948A1D68EE73E087E296E00E94971DCC
:101DF00069E572E087E296E00E948A1DA0904604A1
:101E0000B0904704C0904804D0904904E0904A0440
:101E1000F0904B0400914C0410914D0420914E041D
:101E200030914F04409150045091510460EA71E0A8
:101E300082E594E00E940017BC0187E296E00E94D0
:101E4000A91D63E672E087E296E00E948A1D409138
:101E5000FA035091FB036091FC037091FD0322E0B3
:101E600030E087E296E00E945F1F6EE672E087E254
:101E700096E00E948A1D4091FE035091FF036091FD
:101E800000047091010422E030E087E296E00E94B5
:101E90005F1F6BE772E087E296E00E948A1D0E9456
:101EA0008A020E943F2520E030E040E85AE30E9489
:101EB000F325AB01BC0122E030E087E296E00E940E
:101EC0005F1F67E872E087E296E00E948A1D6091DA
:101ED000DA037091DB034AE050E087E296E00E946B
:101EE000541E6EE271E087E296E00E948A1D6091C6
:101EF000DC037091DD034AE050E087E296E00E9447
:101F0000541E62E371E087E296E00E948A1D4091D0
:101F1000D2035091D3036091D4037091D50322E092
:101F200030E087E296E00E945F1F62E972E087E29C
:101F300096E00E948A1D6091DE037091DF034AE003
:101F400050E087E296E00E94541E6EE271E087E264
:101F500096E00E948A1D6091E0037091E1034AE0DF
:101F600050E087E296E00E94541E62E371E087E24F
:101F700096E00E948A1D4091D6035091D70360914C
:101F8000D8037091D90322E030E087E296E00E9406
:101F90005F1F6DE972E087E296E00E948A1D609102
:101FA000CE037091CF034AE050E087E296E00E94B2
:101FB0005C1E68EA72E087E296E00E948A1D6091EA
:101FC000CC037091CD034AE050E087E296E00E9496
:101FD0005C1E63EB72E087E296E00E948A1D60E37C
:101FE00071E087E296E00E94A91D80913304882366
:101FF00011F060E001C061E084E00E94F51A6E9685
:102000000FB6F894DEBF0FBECDBFDF91CF911F9109
:102010000F91FF90EF90DF90CF90BF90AF909F9087
:102020008F907F906F905F904F900895CF93CFB730
:10203000F89480915E04811127C0ECE2F1E0849174
:10204000E8E1F1E09491E82FF0E0EE0FFF1FE65B8E
:10205000FE4FA591B4918C91892321F461E08AE02F
:102060000E94F51A61E08AE00E94BC1A8CB580617A
:102070008CBD8CB580648CBD61E08DE00E94BC1A83
:1020800061E08BE00E94BC1A80915E048F5F8093B8
:102090005E04CFBFCF9108958EBD00000DB407FE42
:1020A000FDCF8EB508952CB52F7D2CBD2CB5237F8B
:1020B0002CBD2CB52C7F2CBD2DB521602DBDFC0178
:1020C00081810E94F51A85E090E00C944D1AFC0184
:1020D0008081918189130C94F51A089560E00C9425
:1020E000531061E00C945310EF92FF921F93CF9323
:1020F000DF931F92CDB7DEB77C0169830E946E101B
:102100006981862F8F710E944C108FEF0E944C10B6
:10211000182FC7010E947110812F0F90DF91CF916E
:102120001F91FF90EF900895CF92DF92EF92FF9270
:102130000F931F93CF93DF9300D01F92CDB7DEB7DD
:102140008C01F22E4A835B8369830E946E10698141
:10215000862F8F7180620E944C10E82E4A81C42E17
:102160005B81D52EF40EFC1431F0F60181916F01E4
:102170000E944C10F8CFC8010E9471108E2D0F9054
:102180000F900F90DF91CF911F910F91FF90EF90E3
:10219000DF90CF900895EF92FF921F93CF93DF933C
:1021A00000D0CDB7DEB77C014A8369830E946E10F0
:1021B0006981862F8F7180620E944C10182F4A818E
:1021C000842F0E944C10C7010E947110812F0F9024
:1021D0000F90DF91CF911F91FF90EF900895AF92F4
:1021E000BF92DF92EF92FF920F931F93CF93DF93F3
:1021F00000D0CDB7DEB78C01FC01E580F42EE416EB
:1022000008F4FE2CF8018681811102C0EF1801C08C
:10221000E12CC80169837A830E946E1081E60E94D6
:102220004C10D82E6981A62E7A81B72EF60EFA149C
:1022300039F08FEF0E944C10F50181935F01F7CFC9
:10224000EE2029F08FEF0E944C10EA94F9CFC801DC
:102250000E9471108D2D0F900F90DF91CF911F91E3
:102260000F91FF90EF90DF90BF90AF900895EF92A5
:10227000FF921F93CF93DF931F92CDB7DEB77C0100
:1022800069830E946E106981862F0E944C10182F5E
:10229000C7010E947110812F0F90DF91CF911F9184
:1022A000FF90EF90089562EE0C94371161EE0C945C
:1022B00037116FEF0C943711FC0160834183148256
:1022C00080E28583168285E0848717820895462FF1
:1022D0006E3708F04DE765E00C94CB10CF93DF9399
:1022E000EC0160E00E94741081FD0EC0482F426036
:1022F00060E0CE010E94CB1065E070E080E090E0ED
:10230000DF91CF910C94131ADF91CF9108950F9321
:102310001F93CF93DF938C01EB0167E10E94741050
:1023200080FD0BC0209759F0C8010E94591190E020
:10233000959587958770888302C080E001C081E011
:10234000DF91CF911F910F91089560E070E00C94A0
:102350008711CF93DF93EC010E94EF1040E767E015
:10236000CE01DF91CF910C94CB10BF92CF92DF9230
:10237000EF92FF920F931F93CF93DF93CDB7DEB70A
:1023800028970FB6F894DEBF0FBECDBF6C01B62EF6
:10239000E982FA820B831C832D833E834F83588707
:1023A00061110AC0FC01448550E0BE016F5F7F4FA0
:1023B00007960E94E02807C0F6E0F61708F436C03A
:1023C00081E0681308C0EB2DF0E0EE51FF4F6491FF
:1023D000F601248506C0E62FF0E0EE51FF4F649130
:1023E00021E0AE014F5F5F4FC6010E9494100B2D9C
:1023F00010E0F801E452FF4F6491F6014581C601F7
:102400000E94CB1062E0C6010E947410F801E851EE
:10241000FF4F049121E030E001C0220F0A95EAF756
:10242000822B482F62E0C6010E94CB1028960FB67F
:10243000F894DEBF0FBECDBFDF91CF911F910F91FA
:10244000FF90EF90DF90CF90BF9008951F93CF93B0
:10245000DF93EC01162F62E00E947410E12FF0E090
:10246000E851FF4FE49141E050E001C0440FEA958C
:10247000EAF74095482362E0CE01DF91CF911F91AA
:102480000C94CB10CF93DF93EC010E946E1160E0AF
:10249000CE010E947410482F416060E0CE010E947E
:1024A000CB1040E767E0CE010E94CB1061E0CE0187
:1024B0000E9467108F81882349F02C85AE01495F07
:1024C0005F4F6AE0CE010E94941004C060E0CE012C
:1024D0000E9426126DE1CE010E94741081FF05C09A
:1024E000CE01DF91CF910C945611DF91CF910895D9
:1024F000CF93DF93EC010E946E1080E50E944C1098
:1025000083E70E944C10CE01DF91CF910C947110A3
:10251000EF92FF920F931F93CF93DF931F92CDB74C
:10252000DEB77C018B0166E00E947410582F577D46
:102530000230110531F450620BE910E020E030E088
:102540000DC00130110529F005E510E020E030E074
:1025500005C0586001E410E020E030E0F701058795
:1025600016872787308B452F66E0C70159830E9465
:10257000CB1066E0C7010E94741091E05981851369
:1025800090E0892F0F90DF91CF911F910F91FF90D5
:10259000EF9008951F93CF93DF93EC018881998189
:1025A000891719F061E00E94BC1A898198819817F7
:1025B00019F061E00E94BC1A0E94161060E0CE0182
:1025C0000E94671061E0CE010E94531065E070E048
:1025D00080E090E00E94131A4CE060E0CE010E947F
:1025E000CB104FE564E0CE010E94CB1062E070E0BA
:1025F000CE010E948812882311F081E08C8366E06E
:10260000CE010E947410182F60E070E0CE010E948D
:102610008812CE010E94781240E06DE1CE010E9446
:10262000CB1040E06CE1CE010E94CB1040E767E0A8
:10263000CE010E94CB106CE4CE010E946711CE0146
:102640000E945311CE010E945611CE010E946E11BC
:1026500060E0CE010E947410482F4E7F60E0CE01F2
:102660000E94CB10115081E01E3F08F080E0DF9106
:10267000CF911F91089580918F0490E02091900454
:10268000821B910908952091900480918F0428174E
:1026900050F4E22FF0E0EF56FB4F808190E02F5F87
:1026A0002093900408958FEF9FEF0895E091900498
:1026B00080918F04E81730F4F0E0EF56FB4F8081F3
:1026C00090E008958FEF9FEF08950895CF92DF92E5
:1026D000EF92FF920F931F93CF93DF937C01CB0177
:1026E0008A0120916B04222389F0EB016B01C40E57
:1026F000D51ECC15DD0569F06991D701ED91FC91EE
:102700000190F081E02DC7010995F3CF642F0E945D
:102710002315C801DF91CF911F910F91FF90EF908A
:10272000DF90CF900895CF93DF931F92CDB7DEB7A0
:10273000698320916B042223D1F020916C04203214
:1027400040F021E030E0FC013383228380E090E020
:1027500015C080916D04E82FF0E0E259FB4F99819C
:1027600090838F5F80936D0480936C0405C061E05B
:10277000CE0101960E94231581E090E00F90DF9139
:10278000CF910895FC011382128248EE53E060E07D
:1027900070E044835583668377838DEB92E0918369
:1027A000808308951092900410928F0410926D040B
:1027B00010926C040C94661481E080936B04609317
:1027C0008E0410926D0410926C0408950C94DC1326
:1027D0000F93062F21E040916C046EE674E0809127
:1027E0008E040E94CC1410926D0410926C0410920E
:1027F0006B040F9108958F929F92AF92BF92CF92E8
:10280000DF92EF92FF920F931F93CF93DF93EC0130
:10281000F62ED42E48015901EE2019F10E94DC1346
:102820001E2D143008F013E01150B8F0E881F98142
:1028300028E0129FB0011124A501940104C056950F
:102840004795379527956A95D2F7CA01B901019046
:10285000F081E02DCE010995E7CF60E0CE010E9426
:10286000E8134D2D413208F040E22C2D61E974E06F
:102870008F2D0E9484141092900480938F04DF9116
:10288000CF911F910F91FF90EF90DF90CF90BF906D
:10289000AF909F908F900895CF92EF920F931F93D8
:1028A000C22EE12C00E010E098010E94FB131F9162
:1028B0000F91EF90CF90089521E00C944C1461E0BB
:1028C0000C94E8138FE594E00C94C21310921E054B
:1028D00081E080931C0510921B0561E082E10E945B
:1028E000F51A61E083E10E94F51AE9EBF0E08081DE
:1028F0008E7F808380818D7F808388E48093B80081
:1029000085E48093BC000895413208F043C0909163
:102910001E059111FCCF91E090931E0520931C059C
:102920002FEF2093B1041092F604240F2093F504A6
:1029300090931D0590911D05880F892B80931D058F
:1029400080911B05813061F410921B0580911D055B
:102950008093BB008091BC0083FDF8CF85EC01C063
:1029600085EE8093BC0080911E058130E1F380915B
:10297000F604841710F44091F60427EF34E0FB01CD
:10298000D9018A2F821B841718F48D918193F9CF76
:10299000842F089580E008950F93413208F04AC0D3
:1029A00090911E059111FCCF92E090931E0500932B
:1029B0001C059FEF9093B1041092F6044093F50428
:1029C000FB0167EF74E0DB019A2F961B941718F454
:1029D00091919D93F9CF10921D0590911D05880F3F
:1029E000892B80931D0580911B05813061F4109225
:1029F0001B0580911D058093BB008091BC0083FD69
:102A0000F8CF85EC01C085EE8093BC00222321F035
:102A100080911E058230E1F38091B1048F3F61F017
:102A20008091B104803251F08091B104803341F43F
:102A300083E007C081E005C080E003C082E001C000
:102A400084E00F910895613298F420911E0524309E
:102A500089F46093D304FC0185ED94E0DC012A2F16
:102A6000281B261718F421912D93F9CF80E00895A3
:102A700081E0089582E0089585ED8093BC00809107
:102A8000BC0084FDFCCF10921E05089585EC809358
:102A9000BC0010921E0508951F920F920FB60F9260
:102AA00011242F933F934F935F936F937F938F9353
:102AB0009F93AF93BF93EF93FF938091B900887F6B
:102AC000803609F49EC078F5883209F45DC090F430
:102AD000803109F456C038F4882309F4F5C08830F1
:102AE00009F44FC0F5C0883109F44EC0803209F4B2
:102AF0005FC0EEC0803409F46AC058F4803309F432
:102B000057C0883309F0E4C08093B1040E94461591
:102B1000DFC0803509F44FC0883509F45DC08834C2
:102B200009F0D6C0D3C0883909F4C4C0A8F48837E6
:102B300009F467C038F4883609F463C0803709F4B3
:102B400060C0C6C0883809F4B5C0803909F45FC0D8
:102B5000803809F0BDC05BC0803B09F483C038F405
:102B6000803A09F466C0883A09F47CC0B1C0803C60
:102B700009F4A4C0883C09F4A1C0883B09F487C0CB
:102B8000A7C080911D0510C09091F6048091F504B6
:102B9000981770F5E091F60481E08E0F8093F604AB
:102BA000F0E0E950FB4F80818093BB0085EC83C04F
:102BB0008093B1048BC0E091F60481E08E0F809386
:102BC000F6048091BB00F0E0E950FB4F80839091C8
:102BD000F6048091F5046BC0E091F60481E08E0F5D
:102BE0008093F6048091BB00F0E0E950FB4F8083B6
:102BF00080911C0581116AC081E080931B0584EAE5
:102C00005EC083E080931E051092B204CFCF809106
:102C1000B204803208F04EC0E091B20481E08E0F21
:102C20008093B2048091BB00F0E0ED54FB4F8083B1
:102C3000BDCF0E9446158091B204803230F4E091FD
:102C4000B204F0E0ED54FB4F10826091B20470E0EA
:102C5000E0911705F091180583EB94E00995109227
:102C6000B20436C084E080931E051092D404109202
:102C7000D304E0911905F0911A0509958091D304C8
:102C8000811105C081E08093D3041092D504E091B6
:102C9000D40481E08E0F8093D404F0E0EB52FB4F1C
:102CA00080818093BB009091D4048091D3049817C5
:102CB00008F47CCF85E88093BC000AC085EC809343
:102CC000BC0010921E0504C01092B1040E943C1575
:102CD000FF91EF91BF91AF919F918F917F916F91F4
:102CE0005F914F913F912F910F900FBE0F901F90CA
:102CF0001895DC01ED91FC910190F081E02D099493
:102D0000862F6AE00E945A26913039F0923041F0C5
:102D1000933049F480EE92E0089581E293E00895C3
:102D20008DED92E0089583EE92E00895662329F0F8
:102D30006D3028F084EF860F08958CE00895862F7B
:102D40000895E42FF0E0E351FF4F8491423029F4DD
:102D500063707727672B09F48F5F0895DB01A05D0F
:102D6000B74030E0EEEEF0E081E08E1B982F9E0F32
:102D7000941728F49491290F311D3196F7CF4230E2
:102D800029F4CD0183709927892BA9F04DE651E0F4
:102D9000A49FC001A59F900DB49F900D11246D5C60
:102DA00077407695679576956795860F971F01977B
:102DB000820F931F08952F5F3F4FE8CFCF92DF928E
:102DC000EF92FF920F931F93CF93DF93EC018B0150
:102DD000D42EC22E21E041E00E94AE167C012C2DA3
:102DE0004D2DB801CE010E94AE168E199F09DF91BC
:102DF000CF911F910F91FF90EF90DF90CF900895AA
:102E00002F923F924F925F926F927F928F929F92FA
:102E1000AF92BF92CF92DF92EF92FF920F931F93E8
:102E2000CF93DF93CDB7DEB7A2970FB6F894DEBF8E
:102E30000FBECDBF4C01F62FE72FAC86BD86F98AB9
:102E40000A8B2C8B3D8B4E8B5F8B2C843D84212FEA
:102E500010921F05812F90E09B8F8A8F079667E065
:102E600070E00E947A268F8F98A3F88FE98F8E01E9
:102E70000F5F1F4F66EEA62E62E0B62ED101A37043
:102E8000BB27BAA3A9A3F101E05DF740FE8FED8F48
:102E9000FF24FA94FC0C6F2C712C660C771CC30178
:102EA0008F579C4F3C0121502C8F422E512C440CAB
:102EB000551CD201A756BC4F2D01688D798DA88D68
:102EC000B98D8D91B98FA88F882309F4D0C0992727
:102ED00087FD9095A92FB92FFC01E154F109EA3340
:102EE000F10508F0BDC0EC5CFF4F0C94CF261F929B
:102EF000DF9289C01F92DF9266C03C8D373070F53B
:102F0000D20129C03C8D373098F5D2016D917C916A
:102F100031C0BB8DBF93EA8DEF9355C038A13F936D
:102F20003F8D3F9350C02D2D4C2DB101C4010E9407
:102F3000DE169F9347C06D2DC4010E948016BC0110
:102F400058C01F92CF925FC01F92CF923CC08BE0BF
:102F50008F1520F0D3016D917C914BC069EC72E02C
:102F600048C0BBE0BF1520F0F3016081718102C051
:102F700069EC72E043E050E075C04C2DB101C40132
:102F80000E94A1161EC03F922F921DC0FE8DFF937E
:102F90002D8D2F9338C081E0A9A1BAA1AB2B89F068
:102FA00080E00FC01F92EF922EC01F92EF920BC0D5
:102FB0006E2DC4010E94961624C06E2DC4010E947D
:102FC00096161F928F938BEE92E09F938F931DC066
:102FD000BBE0BE1518F061ED72E00BC067ED72E06A
:102FE00008C0EBE0EE1518F064ED72E002C06AED87
:102FF00072E08FE195E00E94E9285FCF898901C0E6
:103000008A891F928F93BF92AF921F930F930E9452
:103010000B29B8018FE195E00E94E9280F900F90ED
:103020000F900F900F900F9048CF8F898F938E89BC
:103030008F938D898F938C898F93AEEEB2E0BF937F
:10304000AF931F930F930E940B29B8018FE195E076
:103050000E94E9280FB6F894DEBF0FBECDBF2DCF7A
:1030600041E050E08FE195E00E94FB2826CF8FE100
:1030700095E0A2960FB6F894DEBF0FBECDBFDF91EC
:10308000CF911F910F91FF90EF90DF90CF90BF9065
:10309000AF909F908F907F906F905F904F903F90F8
:1030A0002F9008951F93CF93DF93FC01C681D581A4
:1030B000148160817181238142810E94AE169C013E
:1030C000A8E1B0E00E94D5269B01AC01210F311D83
:1030D000411D511DACE3B0E00E94E4269B01AC0110
:1030E0002D0F311D411D511D0E94E4266C0F711DD5
:1030F000811D911D60597A4C8249974CDF91CF9187
:103100001F9108951F93CF93DF931F92CDB7DEB722
:10311000162F68E670E08FE594E049830E94E6137D
:10312000612F8FE594E00E9493134981642F8FE50E
:1031300094E00E9493138FE594E00F90DF91CF917C
:103140001F910C945F14AF92BF92CF92DF92EF92D7
:10315000FF920F931F93CF93DF93CDB7DEB72E97D8
:103160000FB6F894DEBF0FBECDBF6C018B0168E6D1
:1031700070E08FE594E00E94E61360E070E08FE578
:1031800094E00E9479168FE594E00E945F1447E076
:1031900050E068E670E08FE594E00E945C148FE5F3
:1031A00094E00E943B13892BD1F37E012FE0E20EC5
:1031B000F11CCE0101965C018FE594E00E9443135F
:1031C000982F92959F708F70EAE09E9F800D11243A
:1031D00090E0F701929382937F01EA15FB0561F776
:1031E0008FE594E00E945F1489819A818053984F03
:1031F000F801918380838B8182838D8183838F818A
:103200008783898584838B8585838D858683C801A3
:103210000E945218F80160877187828793878CE03B
:10322000D60101900D928A95E1F7C6012E960FB650
:10323000F894DEBF0FBECDBFDF91CF911F910F91EC
:10324000FF90EF90DF90CF90BF90AF900895CF9315
:10325000C62F68E670E08FE594E00E94E6136C2FBD
:103260008FE594E00E9493138FE594E00E945F1431
:1032700041E050E068E670E08FE594E00E945C1465
:103280008FE594E00E943B13892BD1F38FE594E006
:103290000E944313C82F8FE594E00E945F148C2F87
:1032A000CF910895EF92FF921F93CF93DF931F92D8
:1032B000CDB7DEB77C01162F6EE049830E94271937
:1032C0004981442311F0806401C08F7B482F112372
:1032D00011F04B7701C040686EE0C7010F90DF919D
:1032E000CF911F91FF90EF900C948218CF93DF93B2
:1032F000EC018FE594E00E94D21340E061E0CE0142
:103300000E94521980ED97E09983888381E08A8337
:103310008B831C821D821E8286E08F8340E755E3EB
:103320006DE678E3488759876A877B8781E0DF917C
:10333000CF9108951F920F920FB60F9211242F93E1
:103340003F938F939F93AF93BF9380911F0690916C
:103350002006A0912106B091220630911E0623E09E
:10336000230F2D3720F40196A11DB11D05C026E8BD
:10337000230F0296A11DB11D20931E0680931F06E8
:1033800090932006A0932106B093220680912306F5
:1033900090912406A0912506B09126060196A11DC4
:1033A000B11D8093230690932406A0932506B09325
:1033B0002606BF91AF919F918F913F912F910F90D2
:1033C0000FBE0F901F9018952FB7F89460911F06AD
:1033D0007091200680912106909122062FBF0895BA
:1033E0003FB7F8948091230690912406A09125067A
:1033F000B091260626B5A89B05C02F3F19F001966F
:10340000A11DB11D3FBF6627782F892F9A2F620F0C
:10341000711D811D911D42E0660F771F881F991F46
:103420004A95D1F708958F929F92AF92BF92CF9213
:10343000DF92EF92FF926B017C010E94F0194B0129
:103440005C01C114D104E104F104F1F00E943A24BA
:103450000E94F019681979098A099B09683E73402E
:103460008105910570F321E0C21AD108E108F10845
:1034700088EE880E83E0981EA11CB11CC114D104F3
:10348000E104F10429F7DDCFFF90EF90DF90CF90BA
:10349000BF90AF909F908F9008958230910538F043
:1034A000880F991F880F991F05970197F1F70895C5
:1034B000789484B5826084BD84B5816084BD85B50F
:1034C000826085BD85B5816085BDEEE6F0E08081D6
:1034D00081608083E1E8F0E01082808182608083F7
:1034E000808181608083E0E8F0E08081816080837A
:1034F000E1EBF0E0808184608083E0EBF0E08081AC
:1035000081608083EAE7F0E080818460808380814D
:1035100082608083808181608083808180688083F5
:103520001092C1000895833081F028F4813099F021
:103530008230A1F008958730A9F08830B9F0843046
:10354000D1F4809180008F7D03C0809180008F77BF
:1035500080938000089584B58F7702C084B58F7DF5
:1035600084BD08958091B0008F7703C08091B00032
:103570008F7D8093B0000895CF93DF9390E0FC019E
:10358000E25FFE4F2491FC01EE5DFE4F84918823A3
:1035900049F190E0880F991FFC01E65BFE4FA59171
:1035A000B491805C9E4FFC01C591D4919FB761118D
:1035B00008C0F8948C91209582238C938881822373
:1035C0000AC0623051F4F8948C91322F30958323E5
:1035D0008C938881822B888304C0F8948C91822BF1
:1035E0008C939FBFDF91CF9108950F931F93CF933B
:1035F000DF931F92CDB7DEB7282F30E0F901E650F8
:10360000FF4F8491F901E25FFE4F1491F901EE5DE5
:10361000FE4F04910023C9F0882321F069830E94A2
:10362000931A6981E02FF0E0EE0FFF1FE05CFE4F80
:10363000A591B4919FB7F8948C91611103C0109536
:10364000812301C0812B8C939FBF0F90DF91CF917D
:103650001F910F910895CF93DF93282F30E0F90148
:10366000E650FF4F8491F901E25FFE4FD491F901DA
:10367000EE5DFE4FC491CC2391F081110E94931A0C
:10368000EC2FF0E0EE0FFF1FEA5CFE4FA591B49126
:103690002C912D2381E090E021F480E002C080E0B5
:1036A00090E0DF91CF910895FC01818D228D90E013
:1036B000805C9F4F821B91098F7399270895FC01AD
:1036C000918D828D981731F0828DE80FF11D858DD7
:1036D00090E008958FEF9FEF0895FC01918D828D0A
:1036E000981761F0828DDF01A80FB11D5D968C9156
:1036F000928D9F5F9F73928F90E008958FEF9FEF61
:10370000089581EF9CE1892B49F080E090E0892BBE
:1037100029F00E94F11C81110C9400000895FC0115
:10372000848DDF01A80FB11DA35ABF4F2C91848D4A
:1037300090E001968F739927848FA689B7892C937F
:10374000A089B1898C9180648C93938D848D98131A
:1037500006C00288F389E02D80818F7D80830895E3
:10376000CF93DF93EC01888D8823C9F0EA89FB8928
:10377000808185FD05C0A889B9898C9186FD0FC01F
:103780000FB607FCF5CF808185FFF2CFA889B989F4
:103790008C9185FFEDCFCE010E948F1BE7CFDF918B
:1037A000CF910895CF92DF92FF920F931F93CF9303
:1037B000DF931F92CDB7DEB76C0181E0D60158963A
:1037C0008C9358975B969C915B975C968C915C97D9
:1037D000981307C05096ED91FC915197808185FD1B
:1037E0002EC0F601038D10E00F5F1F4F0F731127DE
:1037F000F02EF601848DF81211C00FB607FCF9CF38
:10380000D6015096ED91FC915197808185FFF1CFC3
:10381000C60169830E948F1B6981EBCF838DE80FFE
:10382000F11DE35AFF4F6083D6015B960C935B97C3
:103830005296ED91FC915397808180620CC0D60125
:103840005696ED91FC91579760835096ED91FC91BF
:10385000519780818064808381E090E00F90DF91B8
:10386000CF911F910F91FF90DF90CF900895BF925D
:10387000CF92DF92EF92FF92CF93DF93EC016A0138
:103880007B01B22EE889F98982E08083411581EEBF
:10389000580761057105A1F060E079E08DE390E0E3
:1038A000A70196010E948E26215031094109510934
:1038B0005695479537952795211580E1380798F05B
:1038C000E889F989108260E874E88EE190E0A70148
:1038D00096010E948E2621503109410951095695C1
:1038E000479537952795EC85FD853083EE85FF85D7
:1038F0002083188EEC89FD89B082EA89FB8980815A
:1039000080618083EA89FB89808188608083EA897D
:10391000FB89808180688083EA89FB8980818F7D33
:103920008083DF91CF91FF90EF90DF90CF90BF9099
:1039300008951F920F920FB60F9211242F938F9319
:103940009F93EF93FF93E0913706F09138068081C3
:10395000E0913D06F0913E0682FD12C0908180917B
:1039600040068F5F8F7320914106821751F0E091DE
:103970004006F0E0E95DF94F958F8093400601C065
:103980008081FF91EF919F918F912F910F900FBEAA
:103990000F901F9018951F920F920FB60F9211243F
:1039A0002F933F934F935F936F937F938F939F9347
:1039B000AF93BF93EF93FF9387E296E00E948F1B34
:1039C000FF91EF91BF91AF919F918F917F916F91F7
:1039D0005F914F913F912F910F900FBE0F901F90CD
:1039E000189587E296E00E94541B21E0892B09F488
:1039F00020E0822F089510922A061092290688EE60
:103A000093E0A0E0B0E080932B0690932C06A09367
:103A10002D06B0932E068BEA93E0909328068093B0
:103A2000270685EC90E0909334068093330684EC6F
:103A300090E0909336068093350680EC90E090936A
:103A400038068093370681EC90E090933A06809395
:103A5000390682EC90E090933C0680933B0686EC1E
:103A600090E090933E0680933D061092400610929F
:103A7000410610924206109243060895CF92DF92BB
:103A8000EF92FF920F931F93CF93DF937C016A0114
:103A9000EB0100E010E00C151D0571F06991D701F4
:103AA000ED91FC910190F081E02DC7010995892BE2
:103AB00019F00F5F1F4FEFCFC801DF91CF911F911A
:103AC0000F91FF90EF90DF90CF90089561157105F1
:103AD00081F0DB010D900020E9F7AD014150510963
:103AE000461B570BDC01ED91FC910280F381E02D28
:103AF000099480E090E00895DC01ED91FC91DB01F8
:103B000014964D915C9115976D917C910280F38193
:103B1000E02D09940C94661DDC01ED91FC9101905F
:103B2000F081E02D099467EB73E00C94661D0F9310
:103B30001F93CF93DF93EC010E947C1D8C01CE017B
:103B40000E94931D800F911FDF91CF911F910F91C4
:103B500008950F931F93CF93DF93EC010E94661D8E
:103B60008C01CE010E94931D800F911FDF91CF9198
:103B70001F910F9108958F929F92AF92BF92DF9203
:103B8000EF92FF920F931F93CF93DF93CDB7DEB7E2
:103B9000A1970FB6F894DEBF0FBECDBF7C01F42F06
:103BA000D52ECB0119A2223008F42AE08E010F5D38
:103BB0001F4F822E912CA12CB12C6F2F7D2DA50192
:103BC00094010E948E26F22FD32ECA0101501109B2
:103BD0006A3014F4E0E301C0E7E3E60FD801EC93A8
:103BE000232B242B252B49F7B801C7010E94661D02
:103BF000A1960FB6F894DEBF0FBECDBFDF91CF9177
:103C00001F910F91FF90EF90DF90BF90AF909F902A
:103C10008F900895CF92DF92EF92FF920F931F93B0
:103C2000CF93DF93EC016A017B012115310579F413
:103C3000E881F9810190F081E02D642FDF91CF912F
:103C40001F910F91FF90EF90DF90CF9009942A3051
:103C50003105E9F477FF1AC06DE20E948C1D8C01DA
:103C600044275527BA014C195D096E097F092AE0DE
:103C7000CE010E94BB1D800F911FDF91CF911F913C
:103C80000F91FF90EF90DF90CF9008952AE0B70159
:103C9000A601CE01DF91CF911F910F91FF90EF9080
:103CA000DF90CF900C94BB1D9A01AB01662757FDA6
:103CB0006095762F0C940A1E0F931F93CF93DF937A
:103CC000EC019A01AB01662757FD6095762F0E94A3
:103CD0000A1E8C01CE010E94931D800F911FDF915F
:103CE000CF911F910F9108954F925F926F927F92A3
:103CF0008F929F92AF92BF92CF92DF92EF92FF92FC
:103D00000F931F93CF93DF93EC016A017B01B22ED7
:103D10009A01AB01C701B6010E945626882319F00B
:103D20006AEB73E027C026013701E89477F82FEF9C
:103D30003FEF4FE75FE7C301B2010E9456268111B2
:103D40000DC02FEF3FEF4FE75FE7C301B2010E94C5
:103D5000A02418161CF46EEB73E00CC02FEF3FEF9D
:103D60004FE75FE4C701B6010E94EF251816ACF4D7
:103D700062EC73E0CE01DF91CF911F910F91FF9024
:103D8000EF90DF90CF90BF90AF909F908F907F90FB
:103D90006F905F904F900C94661D2FEF3FEF4FE7B1
:103DA0005FECC701B6010E94A02487FDE1CF20E0AF
:103DB00030E0A901C701B6010E94A02487FF0AC014
:103DC0006DE2CE010E948C1D8C01F7FAF094F7F899
:103DD000F09402C000E010E0A12C60E070E080E010
:103DE0009FE3AB1441F020E030E040E251E40E9458
:103DF000A424A394F6CF9B01AC01C701B6010E9495
:103E00003C246B017C010E9411252B013C010E9486
:103E10003D259B01AC01C701B6010E943B246B010B
:103E20007C012AE0B301A201CE010E94BB1D080F54
:103E3000191FBB2039F066EC73E0CE010E94661DAD
:103E4000080F191F7B2C772041F120E030E040E281
:103E500051E4C701B6010E94F3256B017C010E9469
:103E60000C254B01AA2497FCA094BA2C2AE030E040
:103E7000B501A401CE010E940A1E080F191FC50139
:103E8000B4010E943F259B01AC01C701B6010E940D
:103E90003B246B017C017A94D6CFC801DF91CF918E
:103EA0001F910F91FF90EF90DF90CF90BF90AF9058
:103EB0009F908F907F906F905F904F9008950F9399
:103EC0001F93CF93DF93EC010E94741E8C01CE01EF
:103ED0000E94931D800F911FDF91CF911F910F9131
:103EE00008950F931F93CF93DF93EC010E94E41981
:103EF000688779878A879B87E881F9810084F185C3
:103F0000E02DCE01099597FF15C00E94E4190885A0
:103F100019852A853B85601B710B820B930B0C81E5
:103F20001D812E813F81601771078207930720F35F
:103F30008FEF9FEFDF91CF911F910F910895FF9227
:103F40000F931F93CF93DF93EC018B01F42ECE01DF
:103F50000E94711F9C0197FD28C08D32910519F1B7
:103F6000C0970A9710F1FF2019F02E323105F9F0B1
:103F700001301105F9F00230110569F42D303105D9
:103F800051F034F4295031092230310520F012C0AB
:103F90002032310579F4E881F9810680F781E02D3E
:103FA000CE010995D4CF8DE203C0C90105C08EE2D0
:103FB00090E002C08FEF9FEFDF91CF911F910F91A3
:103FC000FF900895CF92DF92FF920F931F93CF93AC
:103FD000DF9300D000D0CDB7DEB76C01042F40E0F6
:103FE0000E949F1FFC0197FD4BC020E030E0A9011B
:103FF000F12C112707FD1095E017F107E9F0ED32DC
:10400000F105C1F0CF01C0970A97B0F4AAE0B0E083
:104010000E94E4269B01AC01CF01AA2797FDA09541
:10402000BA2F280F391F4A1F5B1F2053310941093E
:10403000510902C0FF24F394D601ED91FC91068052
:10404000F781E02DC60129833A834B835C83099570
:10405000C6010E94711FFC01C09729813A814B81E2
:104060005C810A9748F2E017F10731F2FF2061F016
:1040700066277727CB01621B730B840B950B06C059
:1040800060E070E0CB0102C0CA01B9010F900F904F
:104090000F900F90DF91CF911F910F91FF90DF90C4
:1040A000CF9008956F927F928F929F92AF92BF921E
:1040B000CF92DF92EF92FF920F931F93CF93DF93F4
:1040C000EC01042F41E00E949F1FFC0197FD74C08A
:1040D000812C912C80E8A82E8FE3B82EC12CD12CF6
:1040E0007601712C612C112707FD1095E017F1075F
:1040F00091F1ED32F10551F1EE32F10551F1CF01BF
:10410000C0970A9740F5AAE0B0E0A70196010E9487
:10411000E4266B017C01CF01AA2797FDA095BA2F59
:10412000C80ED91EEA1EFB1E80E3C81AD108E1089A
:10413000F108772081F02DEC3CEC4CEC5DE3C501FF
:10414000B4010E94F3254B015C0105C06624639411
:1041500002C077247394E881F9810680F781E02D0D
:10416000CE010995CE010E94711FFC01C0970A97EC
:1041700008F4BCCFEE32F10519F4772009F4B6CF7C
:10418000E017F10709F4B2CF662041F0F094E09413
:10419000D094C094C11CD11CE11CF11CC701B60114
:1041A000772039F00E943F25A50194010E94F32554
:1041B00006C00E943F2503C060E070E0CB01DF91A4
:1041C000CF911F910F91FF90EF90DF90CF90BF9014
:1041D000AF909F908F907F906F9008953F924F92F5
:1041E0005F926F927F928F929F92AF92BF92CF9287
:1041F000DF92EF92FF920F931F93CF93DF9300D044
:1042000000D0CDB7DEB78B0129013A0190910601AC
:10421000981721F09F3F09F0DAC104C0E4E5F1E00E
:10422000349081C080930601E4E5F1E0E491EF3F32
:1042300009F4CDC1E13031F1E23009F44BC0E111B4
:1042400071C014BC15BC94B5926094BD95B59160D5
:1042500095BD282F30E0F901EE5DFE4FE491F0E0CE
:10426000EE0FFF1FE05CFE4F459154915093D40632
:104270004093D306F901E25FFE4F24912093D206CA
:10428000312C53C0109280001092810090918100D7
:10429000986090938100909181009160909381004B
:1042A000282F30E0F901EE5DFE4FE491F0E0EE0FD3
:1042B000FF1FE05CFE4F459154915093CD06409313
:1042C000CC06F901E25FFE4F24912093CB06332404
:1042D00033942BC01092B0001092B1009091B000B6
:1042E00092609093B0009091B10091609093B10072
:1042F000282F30E0F901EE5DFE4FE491F0E0EE0F83
:10430000FF1FE05CFE4F459154915093C6064093C9
:10431000C506F901E25FFE4F24912093C40652E0E6
:10432000352E03C03E2E37FC52C161E00E94BC1AFC
:104330004801A12CB12C832D8D7F09F0C7C060E00E
:1043400072E18AE790E0A50194010E94B0262983DA
:104350003A834B835C8369017A0181E0C81AD108F2
:10436000E108F1089FEFC916D104E104F10409F056
:1043700008F49AC060E472E48FE090E0A501940133
:104380000E94B02669017A01E1E0CE1AD108E10865
:10439000F108F2E03F1219C08FEFC816D104E10412
:1043A000F10409F008F48AC060E970ED83E090E060
:1043B000A50194010E94B02669017A0191E0C91A11
:1043C000D108E108F10883E001C082E0EFEFCE16EA
:1043D000D104E104F10409F008F467C068E478EE60
:1043E00081E090E0A50194010E94B02669017A0164
:1043F000F1E0CF1AD108E108F1083320E1F082E0C2
:1044000038121BC09FEFC916D104E104F10409F072
:1044100008F4DBC064E274EF80E090E0A501940151
:104420000E94B02669017A01E1E0CE1AD108E108C4
:10443000F10885E003C083E001C084E0FFEFCF1600
:10444000D104E104F10489F180F162E17AE780E0CE
:1044500090E0A50194010E94B02669017A0181E0F3
:10446000C81AD108E108F108311002C084E001C087
:1044700086E09FEFC916D104E104F104B1F0A8F081
:10448000C980DA80EB80FC809AE0F594E794D794B9
:10449000C7949A95D1F7E1E0CE1AD108E108F10866
:1044A000332031F087E00BC081E0332011F007C0EA
:1044B00085E095B5987F982B95BD38C082E09091A6
:1044C000B100987F982B9093B10030C060E072E10A
:1044D0008AE790E0A50194010E94B02669017A0163
:1044E000F1E0CF1AD108E108F108C114D10481E04C
:1044F000E806F10488F068E478EE81E090E0A50138
:1045000094010E94B02669017A0191E0C91AD1088C
:10451000E108F10893E001C091E0E1E03E1206C03D
:1045200080918100887F892B809381004114510400
:104530006104710471F0D801AA0FBB1FA30192019D
:104540000E94E42628EE33E040E050E00E948E26F0
:1045500003C02FEF3FEFA901F1E03F16A1F082E089
:10456000381619F1311033C0C7BC2093D5063093EB
:10457000D6064093D7065093D80680916E0082608D
:1045800080936E0024C0D0928900C092880020934E
:10459000CE063093CF064093D0065093D10680913B
:1045A0006F00826080936F0012C0C092B3002093AE
:1045B000C7063093C8064093C9065093CA06809137
:1045C000700082608093700002C084E078CF0F900A
:1045D0000F900F900F90DF91CF911F910F91FF904F
:1045E000EF90DF90CF90BF90AF909F908F907F9093
:1045F0006F905F904F903F900895813039F018F0A0
:10460000823051F0089510926E00089580916F00ED
:104610008D7F80936F000895809170008D7F8093CF
:10462000700081E08093B0008091B100887F846049
:104630008093B1001092B3000895CF93C82F80915A
:1046400006018C1307C0E4E5F1E084919FEF90939D
:10465000060101C08FEF0E94FD2260E08C2FCF91F8
:104660000C94F51A1F920F920FB60F9211242F93EC
:104670003F934F935F936F937F938F939F93AF93EA
:10468000BF93EF93FF938091C7069091C806A091C6
:10469000C906B091CA06892B8A2B8B2B51F19091B8
:1046A000C406E091C506F091C60680818927808303
:1046B0008091C7069091C806A091C906B091CA061C
:1046C000181619061A061B06C4F48091C7069091A5
:1046D000C806A091C906B091CA060197A109B109FF
:1046E0008093C7069093C806A093C906B093CA06E4
:1046F00004C0809106010E941D23FF91EF91BF919C
:10470000AF919F918F917F916F915F914F913F9169
:104710002F910F900FBE0F901F901895FC01808174
:1047200091810C948727CF93DF93EC018881998145
:10473000009711F00E948727198218821D821C821F
:104740001B821A82DF91CF9108950F931F93CF930D
:10475000DF93EC018B016F5F7F4F888199810E940D
:104760001628009731F0998388831B830A8381E0A0
:1047700001C080E0DF91CF911F910F910895CF93F9
:10478000DF93EC0188819981892B29F08A819B81B3
:104790008617970760F4CE010E94A523882341F075
:1047A0008C819D81892B19F4E881F981108281E047
:1047B000DF91CF910895EF92FF920F931F93CF93C4
:1047C000DF93EC017B018A01BA010E94BF238111B2
:1047D00004C0CE010E94932307C01D830C83B70140
:1047E000888199810E94F428CE01DF91CF911F9199
:1047F0000F91FF90EF900895FC01118210821382B7
:104800001282158214826115710559F0FB01019025
:104810000020E9F7AF0141505109461B570B0C949A
:10482000DB230895CF93DF93EC016115710561F0EF
:10483000FB0101900020E9F7AF0141505109461BEF
:10484000570B0E94DB2302C00E949323CE01DF910D
:10485000CF91089508950E94581A0E942A240E9418
:104860003C01C1E8DBE10E94C1022097E1F30E9414
:10487000811BF9CF08955058BB27AA270ED075C1C8
:1048800066D130F06BD120F031F49F3F11F41EF46B
:104890005BC10EF4E095E7FB51C1E92F77D180F3BE
:1048A000BA17620773078407950718F071F49EF52D
:1048B0008FC10EF4E0950B2EBA2FA02D0B01B9017C
:1048C00090010C01CA01A0011124FF27591B99F086
:1048D000593F50F4503E68F11A16F040A22F232F92
:1048E000342F4427585FF3CF469537952795A795E2
:1048F000F0405395C9F77EF41F16BA0B620B730B89
:10490000840BBAF09150A1F0FF0FBB1F661F771FF9
:10491000881FC2F70EC0BA0F621F731F841F48F4AE
:10492000879577956795B795F7959E3F08F0B3CF34
:104930009395880F08F09927EE0F9795879508951E
:10494000D9D008F481E008950CD00FC107D140F010
:10495000FED030F021F45F3F19F0F0C0511139C1A1
:10496000F3C014D198F39923C9F35523B1F3951BE0
:10497000550BBB27AA2762177307840738F09F5F80
:104980005F4F220F331F441FAA1FA9F333D00E2EEF
:104990003AF0E0E830D091505040E695001CCAF75C
:1049A00029D0FE2F27D0660F771F881FBB1F261721
:1049B00037074807AB07B0E809F0BB0B802DBF01F4
:1049C000FF2793585F4F2AF09E3F510568F0B6C00D
:1049D00000C15F3FECF3983EDCF3869577956795D1
:1049E000B795F7959F5FC9F7880F911D96958795A5
:1049F00097F90895E1E0660F771F881FBB1F6217C4
:104A000073078407BA0720F0621B730B840BBA0B81
:104A1000EE1F88F7E095089504D06894B111D9C0CD
:104A20000895BCD088F09F5790F0B92F9927B751BF
:104A3000A0F0D1F0660F771F881F991F1AF0BA9562
:104A4000C9F712C0B13081F0C3D0B1E00895C0C041
:104A5000672F782F8827B85F39F0B93FCCF3869558
:104A600077956795B395D9F73EF4909580957095B5
:104A700061957F4F8F4F9F4F0895E89409C097FB32
:104A80003EF490958095709561957F4F8F4F9F4F25
:104A90009923A9F0F92F96E9BB279395F695879569
:104AA00077956795B795F111F8CFFAF4BB0F11F42C
:104AB00060FF1BC06F5F7F4F8F4F9F4F16C08823D3
:104AC00011F096E911C0772321F09EE8872F762F09
:104AD00005C0662371F096E8862F70E060E02AF04A
:104AE0009A95660F771F881FDAF7880F9695879536
:104AF00097F90895990F0008550FAA0BE0E8FEEF0B
:104B000016161706E807F907C0F012161306E40791
:104B1000F50798F0621B730B840B950B39F40A268A
:104B200061F0232B242B252B21F408950A2609F468
:104B3000A140A6958FEF811D811D089597F99F676C
:104B400080E870E060E008959FEF80EC0895002415
:104B50000A941616170618060906089500240A94E2
:104B600012161306140605060895092E0394000C68
:104B700011F4882352F0BB0F40F4BF2B11F460FFF7
:104B800004C06F5F7F4F8F4F9F4F089557FD905820
:104B9000440F551F59F05F3F71F04795880F97FB01
:104BA000991F61F09F3F79F08795089512161306BB
:104BB0001406551FF2CF4695F1DF08C016161706EA
:104BC0001806991FF1CF869571056105089408951F
:104BD000E894BB2766277727CB0197F908958ADFEA
:104BE00008F48FEF08950BD0C0CFB1DF28F0B6DF07
:104BF00018F0952309F0A2CFA7CF1124EACFC6DF82
:104C0000A0F3959FD1F3950F50E0551F629FF001DF
:104C1000729FBB27F00DB11D639FAA27F00DB11D38
:104C2000AA1F649F6627B00DA11D661F829F2227C1
:104C3000B00DA11D621F739FB00DA11D621F839F48
:104C4000A00D611D221F749F3327A00D611D231F1E
:104C5000849F600D211D822F762F6A2F11249F576C
:104C600050408AF0E1F088234AF0EE0FFF1FBB1F8F
:104C7000661F771F881F91505040A9F79E3F51052E
:104C800070F05CCFA6CF5F3FECF3983EDCF38695E7
:104C900077956795B795F795E7959F5FC1F7FE2BD9
:104CA000880F911D9695879597F9089523DF880BB6
:104CB000990B0895991B79E004C0991F961708F085
:104CC000961B881F7A95C9F780950895AA1BBB1B70
:104CD00051E107C0AA1FBB1FA617B70710F0A61BFC
:104CE000B70B881F991F5A95A9F780959095BC011D
:104CF000CD01089597FB072E16F4009407D077FD99
:104D000009D00E94662607FC05D03EF49095819557
:104D10009F4F0895709561957F4F0895A1E21A2ED7
:104D2000AA1BBB1BFD010DC0AA1FBB1FEE1FFF1F4F
:104D3000A217B307E407F50720F0A21BB30BE40B9F
:104D4000F50B661F771F881F991F1A9469F76095E6
:104D50007095809590959B01AC01BD01CF010895A0
:104D6000052E97FB1EF400940E94C72657FD07D01E
:104D70000E948E2607FC03D04EF40C94C726509553
:104D80004095309521953F4F4F4F5F4F0895909537
:104D90008095709561957F4F8F4F9F4F0895EE0FCF
:104DA000FF1F0590F491E02D0994A29FB001B39FDD
:104DB000C001A39F700D811D1124911DB29F700D24
:104DC000811D1124911D08950E94D526A59F900D47
:104DD000B49F900DA49F800D911D11240895CF9331
:104DE000DF938230910510F482E090E0E091DB06E1
:104DF000F091DC0620E030E0A0E0B0E0309739F13F
:104E00004081518148175907B8F04817590771F484
:104E100082819381109729F013969C938E93129719
:104E20002CC09093DC068093DB0627C0211531054A
:104E300031F04217530718F0A901DB0101C0EF015F
:104E40009A01BD01DF010280F381E02DD7CF21154A
:104E50003105F9F0281B390B2430310580F48A81A3
:104E60009B816115710521F0FB019383828304C04E
:104E70009093DC068093DB06FE01329644C0FE016F
:104E8000E20FF31F819391932250310939832883D4
:104E90003AC02091D9063091DA06232B41F42091B3
:104EA0000201309103013093DA062093D906209154
:104EB0000001309101012115310541F42DB73EB7B4
:104EC0004091040150910501241B350BE091D90656
:104ED000F091DA06E217F307A0F42E1B3F0B281718
:104EE000390778F0AC014E5F5F4F2417350748F063
:104EF0004E0F5F1F5093DA064093D906819391932A
:104F000002C0E0E0F0E0CF01DF91CF910895CF93B0
:104F1000DF93009709F487C0FC0132971382128255
:104F2000C091DB06D091DC06209781F4208131818D
:104F3000280F391F8091D9069091DA0682179307BE
:104F400079F5F093DA06E093D9066DC0DE0120E032
:104F500030E0AE17BF0750F412964D915C91139755
:104F60009D014115510509F1DA01F3CFB383A28305
:104F700040815181840F951F8A179B0771F48D9191
:104F80009C911197840F951F0296918380831296AE
:104F90008D919C911397938382832115310529F478
:104FA000F093DC06E093DB063EC0D9011396FC9338
:104FB000EE9312974D915D91A40FB51FEA17FB0771
:104FC00079F480819181840F951F0296D901119601
:104FD0009C938E938281938113969C938E931297C8
:104FE000E0E0F0E08A819B81009719F0FE01EC017E
:104FF000F9CFCE01029628813981820F931F20912B
:10500000D9063091DA062817390769F4309729F460
:105010001092DC061092DB0602C013821282D0933B
:10502000DA06C093D906DF91CF910895A0E0B0E0F1
:10503000ECE1F8E20C94BF2BEC01CB01209719F4C2
:105040000E94EF26B8C0FE01E60FF71F9E01225016
:105050003109E217F30708F4ACC0D9010D911C9196
:10506000119706171707B8F00530110508F49FC00F
:10507000A801445051094617570708F498C0025038
:105080001109061B170B019311936D937C93CF01AC
:105090000E9487278CC05B01A01AB10A4E01800EC6
:1050A000911EA091DB06B091DC06612C712C60E0B2
:1050B00070E0109709F449C0A815B905C9F5ED903D
:1050C000FC901197670142E0C40ED11CCA14DB04A6
:1050D00078F147018A189B08640142E0C40ED11C94
:1050E0001296BC9012971396AC91B5E0CB16D104F2
:1050F00040F0B282A38391828082D9018D939C93E8
:1051000009C00E5F1F4F0E0D1F1DF9011183008393
:10511000EB2DFA2F6115710531F0DB011396FC932D
:10512000EE93129744C0F093DC06E093DB063FC099
:105130006D917C9111976616770608F43B01BD01CD
:1051400012960D90BC91A02DB4CF6091D9067091AC
:10515000DA0668157905E9F468167906D0F4409105
:105160000001509101014115510541F44DB75EB761
:105170006091040170910501461B570BE417F50778
:10518000C0F4F093DA06E093D906F90191838083A5
:105190000EC00E94EF267C01009759F0A801BE01C5
:1051A0000E94E028CE010E948727C70104C0CE01DB
:1051B00002C080E090E0CDB7DEB7EEE00C94DB2BD0
:1051C000FB01DC0102C001900D9241505040D8F724
:1051D0000895FB01DC010D900020E9F71197019083
:1051E0000D920020E1F70895FB01DC0101900D9282
:1051F0000020E1F70895FB01DC010D900020E9F7A4
:1052000011974150504028F0019000200D92C9F7AD
:1052100008951C920895AEE0B0E0E1E1F9E20C944B
:10522000C92B0D891E8986E08C831A8309838FEF31
:105230009FE79E838D83AE01475E5F4F6F89788DB8
:10524000CE0101960E942D29EF81F885E00FF11F14
:1052500010822E96E4E00C94E52BACE0B0E0E3E3A2
:10526000F9E20C94BB2B7C016B018A01FC011782D3
:105270001682838181FFBDC1CE0101964C01F701E9
:105280009381F60193FD859193FF81916F018823AE
:1052900009F4ABC1853239F493FD859193FF819177
:1052A0006F01853229F4B70190E00E942B2BE7CFE4
:1052B000512C312C20E02032A0F48B3269F030F4F4
:1052C000803259F0833269F420612CC08D3239F07C
:1052D000803339F4216026C02260246023C0286016
:1052E00021C027FD27C030ED380F3A3078F426FF73
:1052F00006C0FAE05F9E300D1124532E13C08AE0E1
:10530000389E300D1124332E20620CC08E3221F4D1
:1053100026FD6BC1206406C08C3611F4206802C0E3
:10532000883641F4F60193FD859193FF81916F01D9
:105330008111C1CF982F9F7D9554933028F40C5F35
:105340001F4FFFE3F9830DC0833631F0833771F0CF
:10535000833509F05BC022C0F801808189830E5F2C
:105360001F4F44244394512C540115C03801F2E0DE
:105370006F0E711CF801A080B18026FF03C0652D5F
:1053800070E002C06FEF7FEFC5012C870E94202BD9
:105390002C0183012C852F77222E17C03801F2E0D3
:1053A0006F0E711CF801A080B18026FF03C0652D2F
:1053B00070E002C06FEF7FEFC5012C870E94152BB4
:1053C0002C012C852068222E830123FC1BC0832DF9
:1053D00090E048165906B0F4B70180E290E00E94D0
:1053E0002B2B3A94F4CFF50127FC859127FE819170
:1053F0005F01B70190E00E942B2B31103A94F1E04D
:105400004F1A51084114510471F7E5C0843611F068
:10541000893639F5F80127FF07C0608171818281E3
:1054200093810C5F1F4F08C060817181882777FDD1
:105430008095982F0E5F1F4F2F76B22E97FF09C0D1
:1054400090958095709561957F4F8F4F9F4F206805
:10545000B22E2AE030E0A4010E945D2BA82EA818ED
:1054600044C0853729F42F7EB22E2AE030E025C0D3
:10547000F22FF97FBF2E8F36C1F018F4883579F0FE
:10548000B4C0803719F0883721F0AFC02F2F2061CA
:10549000B22EB4FE0DC08B2D8460B82E09C024FF3F
:1054A0000AC09F2F9660B92E06C028E030E005C0E4
:1054B00020E130E002C020E132E0F801B7FE07C091
:1054C00060817181828193810C5F1F4F06C0608172
:1054D000718180E090E00E5F1F4FA4010E945D2B60
:1054E000A82EA818FB2DFF77BF2EB6FE0BC02B2DC4
:1054F0002E7FA51450F4B4FE0AC0B2FC08C02B2DB8
:105500002E7E05C07A2C2B2D03C07A2C01C0752C61
:1055100024FF0DC0FE01EA0DF11D8081803311F4DE
:10552000297E09C022FF06C07394739404C0822FA1
:10553000867809F0739423FD13C020FF06C05A2C0F
:10554000731418F4530C5718732C731468F4B701C0
:1055500080E290E02C870E942B2B73942C85F5CF52
:10556000731410F4371801C0312C24FF12C0B70196
:1055700080E390E02C870E942B2B2C8522FF17C004
:1055800021FF03C088E590E002C088E790E0B70102
:105590000CC0822F867859F021FD02C080E201C044
:1055A0008BE227FD8DE2B70190E00E942B2BA51422
:1055B00038F4B70180E390E00E942B2B5A94F7CF88
:1055C000AA94F401EA0DF11D8081B70190E00E94D8
:1055D0002B2BA110F5CF332009F451CEB70180E277
:1055E00090E00E942B2B3A94F6CFF70186819781A9
:1055F00002C08FEF9FEF2C96E2E10C94D72BF99924
:10560000FECF92BD81BDF89A992780B50895262FC7
:10561000F999FECF1FBA92BD81BD20BD0FB6F89497
:10562000FA9AF99A0FBE01960895FC01059061500F
:1056300070400110D8F7809590958E0F9F1F0895A8
:10564000FC016150704001900110D8F78095909551
:105650008E0F9F1F08950F931F93CF93DF93182FE3
:10566000092FEB018B8181FD03C08FEF9FEF20C0DD
:1056700082FF10C04E815F812C813D81421753070C
:105680007CF4E881F9819F012F5F3F4F39832883A4
:10569000108306C0E885F985812F0995892B29F7A4
:1056A0002E813F812F5F3F4F3F832E83812F902F8D
:1056B000DF91CF911F910F910895FA01AA27283009
:1056C00051F1203181F1E8946F936E7F6E5F7F4FCF
:1056D0008F4F9F4FAF4FB1E03ED0B4E03CD0670F4B
:1056E000781F891F9A1FA11D680F791F8A1F911D9E
:1056F000A11D6A0F711D811D911DA11D20D009F4EE
:1057000068943F912AE0269F11243019305D31932F
:10571000DEF6CF010895462F4770405D4193B3E018
:105720000FD0C9F7F6CF462F4F70405D4A3318F0BF
:10573000495D31FD4052419302D0A9F7EACFB4E070
:10574000A6959795879577956795BA95C9F7009728
:105750006105710508959B01AC010A2E06945795C9
:10576000479537952795BA95C9F7620F731F841F20
:10577000951FA01D08952F923F924F925F926F92B6
:105780007F928F929F92AF92BF92CF92DF92EF92D1
:10579000FF920F931F93CF93DF93CDB7DEB7CA1B52
:1057A000DB0B0FB6F894DEBF0FBECDBF09942A887D
:1057B000398848885F846E847D848C849B84AA8425
:1057C000B984C884DF80EE80FD800C811B81AA81B2
:1057D000B981CE0FD11D0FB6F894DEBF0FBECDBF7D
:1057E000ED01089511E0CCE5D1E004C0FE010E9476
:0E57F000D1262296CE35D107C9F7F894FFCF07
:1057FE000000DD068000FF4F75743A200054656D81
:10580E00703A2000476973746572657369733A2044
:10581E0000496E74657276616C20313A2000202D3D
:10582E002000203A2000496E74657276616C203239
:10583E003A20003F0048656C703A00312D6F757448
:10584E0070757400322D74656D7000332D67697339
:10585E007465726573697300342D696E7465727642
:10586E00616C20312028342C382C31302C302E35E0
:10587E002920382D31302074656D70202B302E3557
:10588E0000352D696E74657276616C2032003600BB
:10589E00483A693A73007C7C717C7C0052616D3AA7
:1058AE00200054282D2D3E293A200054282D2D3E1F
:1058BE002B49293A200054282D3E3C2D293A200010
:1058CE00542821293A2000476973282B2F2D293A75
:1058DE00200054286D6178293A200054286D696E95
:1058EE003A200054286D61782D3E293A2000542824
:1058FE006D696E2D3E293A200054286F6E293A208C
:10590E000054286F6666293A20005428627566296D
:10591E003A200043282B293A200043286465293A6F
:10592E002000432865293A200043286379293A202C
:10593E0000576F726B3A2000537465703A20005412
:10594E00696D65286C293A200054696D65286329B4
:10595E003A200068696D69646974793A200076634B
:10596E006328636C6F636B293A2000766363286249
:10597E00617A65293A2000496E7465722831293A98
:10598E002000496E7465722832293A2000705F68D3
:10599E006F75725F693A2000705F686F75725F6332
:1059AE003A20007C7C7A7C7C000000000093136619
:1059BE00133B13431356136513556E6B6E6F776E51
:1059CE0000414D00616D00504D00706D006E640021
:1059DE007264007468002530326400256400256C02
:1059EE0075004A616E756172790046656272756105
:1059FE007279004D6172636800417072696C004D7E
:105A0E006179004A756E65004A756C79004175675B
:105A1E007573740053657074656D626572004F63C3
:105A2E00746F626572004E6F76656D6265720044CA
:105A3E006563656D626572004D6F6E6461790054C9
:105A4E00756573646179005765646E657364617919
:105A5E000054687572736461790046726964617985
:105A6E000053617475726461790053756E64617967
:105A7E0000F202FA02030309030F03130318031DB6
:105A8E000324032E0336033F0348034F03570361DA
:105A9E00036A0371037A0300000000D21B3E1D54FB
:105AAE001B6D1B5F1BB01B0D0A006E616E00696ED5
:085ABE0066006F7666002E0001
:107E0000112484B714BE81FFF0D085E080938100F7
:107E100082E08093C00088E18093C10086E0809377
